{
  "contractName": "MelodyMarketplace",
  "abi": [
    {
      "inputs": [
        {
          "internalType": "address",
          "name": "_nftContractAddress",
          "type": "address"
        }
      ],
      "stateMutability": "nonpayable",
      "type": "constructor"
    },
    {
      "inputs": [],
      "name": "nftContract",
      "outputs": [
        {
          "internalType": "contract IERC721",
          "name": "",
          "type": "address"
        }
      ],
      "stateMutability": "view",
      "type": "function",
      "constant": true
    },
    {
      "inputs": [
        {
          "internalType": "uint256",
          "name": "_tokenId",
          "type": "uint256"
        },
        {
          "internalType": "uint256",
          "name": "_price",
          "type": "uint256"
        }
      ],
      "name": "listToken",
      "outputs": [],
      "stateMutability": "nonpayable",
      "type": "function"
    },
    {
      "inputs": [
        {
          "internalType": "uint256",
          "name": "_listingId",
          "type": "uint256"
        }
      ],
      "name": "cancelListing",
      "outputs": [],
      "stateMutability": "nonpayable",
      "type": "function"
    },
    {
      "inputs": [
        {
          "internalType": "uint256",
          "name": "_listingId",
          "type": "uint256"
        }
      ],
      "name": "buyToken",
      "outputs": [],
      "stateMutability": "payable",
      "type": "function",
      "payable": true
    },
    {
      "inputs": [
        {
          "internalType": "uint256",
          "name": "_listingId",
          "type": "uint256"
        },
        {
          "internalType": "uint256",
          "name": "_newPrice",
          "type": "uint256"
        }
      ],
      "name": "changePrice",
      "outputs": [],
      "stateMutability": "nonpayable",
      "type": "function"
    }
  ],
  "bytecode": "0x608060405234801561001057600080fd5b50604051610ec5380380610ec5833981810160405281019061003291906100db565b806000806101000a81548173ffffffffffffffffffffffffffffffffffffffff021916908373ffffffffffffffffffffffffffffffffffffffff16021790555050610108565b600080fd5b600073ffffffffffffffffffffffffffffffffffffffff82169050919050565b60006100a88261007d565b9050919050565b6100b88161009d565b81146100c357600080fd5b50565b6000815190506100d5816100af565b92915050565b6000602082840312156100f1576100f0610078565b5b60006100ff848285016100c6565b91505092915050565b610dae806101176000396000f3fe60806040526004361061004a5760003560e01c80632d296bf11461004f578063305a67a81461006b57806375c1631d14610094578063b3de019c146100bd578063d56d229d146100e6575b600080fd5b61006960048036038101906100649190610935565b610111565b005b34801561007757600080fd5b50610092600480360381019061008d9190610935565b610357565b005b3480156100a057600080fd5b506100bb60048036038101906100b69190610962565b610533565b005b3480156100c957600080fd5b506100e460048036038101906100df9190610962565b6107b0565b005b3480156100f257600080fd5b506100fb6108d6565b6040516101089190610a21565b60405180910390f35b6002600082815260200190815260200160002060030160009054906101000a900460ff16610174576040517f08c379a000000000000000000000000000000000000000000000000000000000815260040161016b90610a99565b60405180910390fd5b60026000828152602001908152602001600020600201543410156101cd576040517f08c379a00000000000000000000000000000000000000000000000000000000081526004016101c490610b05565b60405180910390fd5b60008054906101000a900473ffffffffffffffffffffffffffffffffffffffff1673ffffffffffffffffffffffffffffffffffffffff166323b872dd6002600084815260200190815260200160002060010160009054906101000a900473ffffffffffffffffffffffffffffffffffffffff163360026000868152602001908152602001600020600001546040518463ffffffff1660e01b815260040161027693929190610b55565b600060405180830381600087803b15801561029057600080fd5b505af11580156102a4573d6000803e3d6000fd5b505050506002600082815260200190815260200160002060010160009054906101000a900473ffffffffffffffffffffffffffffffffffffffff1673ffffffffffffffffffffffffffffffffffffffff166108fc349081150290604051600060405180830381858888f19350505050158015610324573d6000803e3d6000fd5b5060006002600083815260200190815260200160002060030160006101000a81548160ff02191690831515021790555050565b3373ffffffffffffffffffffffffffffffffffffffff166002600083815260200190815260200160002060010160009054906101000a900473ffffffffffffffffffffffffffffffffffffffff1673ffffffffffffffffffffffffffffffffffffffff16146103fb576040517f08c379a00000000000000000000000000000000000000000000000000000000081526004016103f290610bd8565b60405180910390fd5b6002600082815260200190815260200160002060030160009054906101000a900460ff1661045e576040517f08c379a000000000000000000000000000000000000000000000000000000000815260040161045590610a99565b60405180910390fd5b60008054906101000a900473ffffffffffffffffffffffffffffffffffffffff1673ffffffffffffffffffffffffffffffffffffffff1663095ea7b33060026000858152602001908152602001600020600001546040518363ffffffff1660e01b81526004016104cf929190610bf8565b600060405180830381600087803b1580156104e957600080fd5b505af11580156104fd573d6000803e3d6000fd5b5050505060006002600083815260200190815260200160002060030160006101000a81548160ff02191690831515021790555050565b3373ffffffffffffffffffffffffffffffffffffffff1660008054906101000a900473ffffffffffffffffffffffffffffffffffffffff1673ffffffffffffffffffffffffffffffffffffffff16636352211e846040518263ffffffff1660e01b81526004016105a39190610c21565b602060405180830381865afa1580156105c0573d6000803e3d6000fd5b505050506040513d601f19601f820116820180604052508101906105e49190610c68565b73ffffffffffffffffffffffffffffffffffffffff161461063a576040517f08c379a000000000000000000000000000000000000000000000000000000000815260040161063190610ce1565b60405180910390fd5b60008054906101000a900473ffffffffffffffffffffffffffffffffffffffff1673ffffffffffffffffffffffffffffffffffffffff1663095ea7b330846040518363ffffffff1660e01b8152600401610695929190610bf8565b600060405180830381600087803b1580156106af57600080fd5b505af11580156106c3573d6000803e3d6000fd5b50505050600160008154809291906106da90610d30565b919050555060405180608001604052808381526020013373ffffffffffffffffffffffffffffffffffffffff168152602001828152602001600115158152506002600060015481526020019081526020016000206000820151816000015560208201518160010160006101000a81548173ffffffffffffffffffffffffffffffffffffffff021916908373ffffffffffffffffffffffffffffffffffffffff1602179055506040820151816002015560608201518160030160006101000a81548160ff0219169083151502179055509050505050565b3373ffffffffffffffffffffffffffffffffffffffff166002600084815260200190815260200160002060010160009054906101000a900473ffffffffffffffffffffffffffffffffffffffff1673ffffffffffffffffffffffffffffffffffffffff1614610854576040517f08c379a000000000000000000000000000000000000000000000000000000000815260040161084b90610bd8565b60405180910390fd5b6002600083815260200190815260200160002060030160009054906101000a900460ff166108b7576040517f08c379a00000000000000000000000000000000000000000000000000000000081526004016108ae90610a99565b60405180910390fd5b8060026000848152602001908152602001600020600201819055505050565b60008054906101000a900473ffffffffffffffffffffffffffffffffffffffff1681565b600080fd5b6000819050919050565b610912816108ff565b811461091d57600080fd5b50565b60008135905061092f81610909565b92915050565b60006020828403121561094b5761094a6108fa565b5b600061095984828501610920565b91505092915050565b60008060408385031215610979576109786108fa565b5b600061098785828601610920565b925050602061099885828601610920565b9150509250929050565b600073ffffffffffffffffffffffffffffffffffffffff82169050919050565b6000819050919050565b60006109e76109e26109dd846109a2565b6109c2565b6109a2565b9050919050565b60006109f9826109cc565b9050919050565b6000610a0b826109ee565b9050919050565b610a1b81610a00565b82525050565b6000602082019050610a366000830184610a12565b92915050565b600082825260208201905092915050565b7f4c697374696e67206973206e6f74206163746976650000000000000000000000600082015250565b6000610a83601583610a3c565b9150610a8e82610a4d565b602082019050919050565b60006020820190508181036000830152610ab281610a76565b9050919050565b7f496e73756666696369656e742066756e64730000000000000000000000000000600082015250565b6000610aef601283610a3c565b9150610afa82610ab9565b602082019050919050565b60006020820190508181036000830152610b1e81610ae2565b9050919050565b6000610b30826109a2565b9050919050565b610b4081610b25565b82525050565b610b4f816108ff565b82525050565b6000606082019050610b6a6000830186610b37565b610b776020830185610b37565b610b846040830184610b46565b949350505050565b7f4e6f7420746865206c697374696e67206f776e65720000000000000000000000600082015250565b6000610bc2601583610a3c565b9150610bcd82610b8c565b602082019050919050565b60006020820190508181036000830152610bf181610bb5565b9050919050565b6000604082019050610c0d6000830185610b37565b610c1a6020830184610b46565b9392505050565b6000602082019050610c366000830184610b46565b92915050565b610c4581610b25565b8114610c5057600080fd5b50565b600081519050610c6281610c3c565b92915050565b600060208284031215610c7e57610c7d6108fa565b5b6000610c8c84828501610c53565b91505092915050565b7f4e6f742074686520746f6b656e206f776e657200000000000000000000000000600082015250565b6000610ccb601383610a3c565b9150610cd682610c95565b602082019050919050565b60006020820190508181036000830152610cfa81610cbe565b9050919050565b7f4e487b7100000000000000000000000000000000000000000000000000000000600052601160045260246000fd5b6000610d3b826108ff565b91507fffffffffffffffffffffffffffffffffffffffffffffffffffffffffffffffff8203610d6d57610d6c610d01565b5b60018201905091905056fea2646970667358221220b170f21c7dc96722a3317a07f547bd81d6f4b82550a97049c50ae6eb04c9d55364736f6c634300080f0033",
  "immutableReferences": {},
  "source": "/** SPDX-License-Identifier: UNLICENSED\n * @author: zwan@andrew.cmu.edu\n * 2023-04-21\n */ \n\npragma solidity ^0.8.0;\n\nimport \"@openzeppelin/contracts/token/ERC721/IERC721.sol\";\n\ncontract MelodyMarketplace {\n    struct Listing {\n        uint256 tokenId;\n        address seller;\n        uint256 price;\n        bool active;\n    }\n\n    IERC721 public nftContract;\n    uint256 private nextListingId;\n    mapping(uint256 => Listing) private listings;\n    \n\n    /*\n    This contract should be initialized by `MelodyNFT` Contract Instance.\n    */\n    constructor(address _nftContractAddress) {\n        nftContract = IERC721(_nftContractAddress);\n    }\n\n    function listToken(uint256 _tokenId, uint256 _price) external {\n        require(nftContract.ownerOf(_tokenId) == msg.sender, \"Not the token owner\");\n        nftContract.approve(address(this), _tokenId);\n\n        nextListingId++;\n        listings[nextListingId] = Listing({\n            tokenId: _tokenId,\n            seller: msg.sender,\n            price: _price,\n            active: true\n        });\n    }\n\n    function cancelListing(uint256 _listingId) external {\n        require(listings[_listingId].seller == msg.sender, \"Not the listing owner\");\n        require(listings[_listingId].active, \"Listing is not active\");\n\n        nftContract.approve(address(this), listings[_listingId].tokenId);\n        listings[_listingId].active = false;\n    }\n\n    function buyToken(uint256 _listingId) external payable {\n        require(listings[_listingId].active, \"Listing is not active\");\n        require(msg.value >= listings[_listingId].price, \"Insufficient funds\");\n\n        nftContract.transferFrom(listings[_listingId].seller, msg.sender, listings[_listingId].tokenId);\n        payable(listings[_listingId].seller).transfer(msg.value);\n        listings[_listingId].active = false;\n    }\n\n    function changePrice(uint256 _listingId, uint256 _newPrice) external {\n        require(listings[_listingId].seller == msg.sender, \"Not the listing owner\");\n        require(listings[_listingId].active, \"Listing is not active\");\n\n        listings[_listingId].price = _newPrice;\n    }\n\n    // Implement auction-related functions\n}\n",
  "sourcePath": "/Users/zwan/Desktop/CMU-2023-Spr/73-258/MelodyFoundations/contracts/MelodyMarketplace.sol",
  "compiler": {
    "name": "solc",
    "version": "0.8.15+commit.e14f2714.Emscripten.clang"
  },
  "schemaVersion": "3.4.8",
  "updatedAt": "2023-04-21T17:47:43.114Z",
  "networkType": "ethereum",
  "devdoc": {
    "kind": "dev",
    "methods": {},
    "version": 1
  },
  "userdoc": {
    "kind": "user",
    "methods": {},
    "version": 1
  }
}