{
  "contractName": "MelodyMarketplace",
  "abi": [
    {
      "inputs": [
        {
          "internalType": "address",
          "name": "_nftContractAddress",
          "type": "address"
        }
      ],
      "stateMutability": "nonpayable",
      "type": "constructor"
    },
    {
      "inputs": [],
      "name": "nftContract",
      "outputs": [
        {
          "internalType": "contract IERC721",
          "name": "",
          "type": "address"
        }
      ],
      "stateMutability": "view",
      "type": "function",
      "constant": true
    },
    {
      "inputs": [
        {
          "internalType": "uint256",
          "name": "_tokenId",
          "type": "uint256"
        },
        {
          "internalType": "uint256",
          "name": "_price",
          "type": "uint256"
        }
      ],
      "name": "listToken",
      "outputs": [],
      "stateMutability": "nonpayable",
      "type": "function"
    },
    {
      "inputs": [
        {
          "internalType": "uint256",
          "name": "_listingId",
          "type": "uint256"
        }
      ],
      "name": "cancelListing",
      "outputs": [],
      "stateMutability": "nonpayable",
      "type": "function"
    },
    {
      "inputs": [
        {
          "internalType": "uint256",
          "name": "_listingId",
          "type": "uint256"
        }
      ],
      "name": "buyToken",
      "outputs": [],
      "stateMutability": "payable",
      "type": "function",
      "payable": true
    },
    {
      "inputs": [
        {
          "internalType": "uint256",
          "name": "_listingId",
          "type": "uint256"
        },
        {
          "internalType": "uint256",
          "name": "_newPrice",
          "type": "uint256"
        }
      ],
      "name": "changePrice",
      "outputs": [],
      "stateMutability": "nonpayable",
      "type": "function"
    }
  ],
  "bytecode": "0x608060405234801561001057600080fd5b50604051610f52380380610f52833981810160405281019061003291906100db565b806000806101000a81548173ffffffffffffffffffffffffffffffffffffffff021916908373ffffffffffffffffffffffffffffffffffffffff16021790555050610108565b600080fd5b600073ffffffffffffffffffffffffffffffffffffffff82169050919050565b60006100a88261007d565b9050919050565b6100b88161009d565b81146100c357600080fd5b50565b6000815190506100d5816100af565b92915050565b6000602082840312156100f1576100f0610078565b5b60006100ff848285016100c6565b91505092915050565b610e3b806101176000396000f3fe608060405260043610610067576000357c0100000000000000000000000000000000000000000000000000000000900480632d296bf11461006c578063305a67a81461008857806375c1631d146100b1578063b3de019c146100da578063d56d229d14610103575b600080fd5b610086600480360381019061008191906109c2565b61012e565b005b34801561009457600080fd5b506100af60048036038101906100aa91906109c2565b610390565b005b3480156100bd57600080fd5b506100d860048036038101906100d391906109ef565b610588565b005b3480156100e657600080fd5b5061010160048036038101906100fc91906109ef565b61083d565b005b34801561010f57600080fd5b50610118610963565b6040516101259190610aae565b60405180910390f35b6002600082815260200190815260200160002060030160009054906101000a900460ff16610191576040517f08c379a000000000000000000000000000000000000000000000000000000000815260040161018890610b26565b60405180910390fd5b60026000828152602001908152602001600020600201543410156101ea576040517f08c379a00000000000000000000000000000000000000000000000000000000081526004016101e190610b92565b60405180910390fd5b60008054906101000a900473ffffffffffffffffffffffffffffffffffffffff1673ffffffffffffffffffffffffffffffffffffffff166323b872dd6002600084815260200190815260200160002060010160009054906101000a900473ffffffffffffffffffffffffffffffffffffffff163360026000868152602001908152602001600020600001546040518463ffffffff167c01000000000000000000000000000000000000000000000000000000000281526004016102af93929190610be2565b600060405180830381600087803b1580156102c957600080fd5b505af11580156102dd573d6000803e3d6000fd5b505050506002600082815260200190815260200160002060010160009054906101000a900473ffffffffffffffffffffffffffffffffffffffff1673ffffffffffffffffffffffffffffffffffffffff166108fc349081150290604051600060405180830381858888f1935050505015801561035d573d6000803e3d6000fd5b5060006002600083815260200190815260200160002060030160006101000a81548160ff02191690831515021790555050565b3373ffffffffffffffffffffffffffffffffffffffff166002600083815260200190815260200160002060010160009054906101000a900473ffffffffffffffffffffffffffffffffffffffff1673ffffffffffffffffffffffffffffffffffffffff1614610434576040517f08c379a000000000000000000000000000000000000000000000000000000000815260040161042b90610c65565b60405180910390fd5b6002600082815260200190815260200160002060030160009054906101000a900460ff16610497576040517f08c379a000000000000000000000000000000000000000000000000000000000815260040161048e90610b26565b60405180910390fd5b60008054906101000a900473ffffffffffffffffffffffffffffffffffffffff1673ffffffffffffffffffffffffffffffffffffffff1663095ea7b33060026000858152602001908152602001600020600001546040518363ffffffff167c0100000000000000000000000000000000000000000000000000000000028152600401610524929190610c85565b600060405180830381600087803b15801561053e57600080fd5b505af1158015610552573d6000803e3d6000fd5b5050505060006002600083815260200190815260200160002060030160006101000a81548160ff02191690831515021790555050565b3373ffffffffffffffffffffffffffffffffffffffff1660008054906101000a900473ffffffffffffffffffffffffffffffffffffffff1673ffffffffffffffffffffffffffffffffffffffff16636352211e846040518263ffffffff167c01000000000000000000000000000000000000000000000000000000000281526004016106149190610cae565b602060405180830381865afa158015610631573d6000803e3d6000fd5b505050506040513d601f19601f820116820180604052508101906106559190610cf5565b73ffffffffffffffffffffffffffffffffffffffff16146106ab576040517f08c379a00000000000000000000000000000000000000000000000000000000081526004016106a290610d6e565b60405180910390fd5b60008054906101000a900473ffffffffffffffffffffffffffffffffffffffff1673ffffffffffffffffffffffffffffffffffffffff1663095ea7b330846040518363ffffffff167c0100000000000000000000000000000000000000000000000000000000028152600401610722929190610c85565b600060405180830381600087803b15801561073c57600080fd5b505af1158015610750573d6000803e3d6000fd5b505050506001600081548092919061076790610dbd565b919050555060405180608001604052808381526020013373ffffffffffffffffffffffffffffffffffffffff168152602001828152602001600115158152506002600060015481526020019081526020016000206000820151816000015560208201518160010160006101000a81548173ffffffffffffffffffffffffffffffffffffffff021916908373ffffffffffffffffffffffffffffffffffffffff1602179055506040820151816002015560608201518160030160006101000a81548160ff0219169083151502179055509050505050565b3373ffffffffffffffffffffffffffffffffffffffff166002600084815260200190815260200160002060010160009054906101000a900473ffffffffffffffffffffffffffffffffffffffff1673ffffffffffffffffffffffffffffffffffffffff16146108e1576040517f08c379a00000000000000000000000000000000000000000000000000000000081526004016108d890610c65565b60405180910390fd5b6002600083815260200190815260200160002060030160009054906101000a900460ff16610944576040517f08c379a000000000000000000000000000000000000000000000000000000000815260040161093b90610b26565b60405180910390fd5b8060026000848152602001908152602001600020600201819055505050565b60008054906101000a900473ffffffffffffffffffffffffffffffffffffffff1681565b600080fd5b6000819050919050565b61099f8161098c565b81146109aa57600080fd5b50565b6000813590506109bc81610996565b92915050565b6000602082840312156109d8576109d7610987565b5b60006109e6848285016109ad565b91505092915050565b60008060408385031215610a0657610a05610987565b5b6000610a14858286016109ad565b9250506020610a25858286016109ad565b9150509250929050565b600073ffffffffffffffffffffffffffffffffffffffff82169050919050565b6000819050919050565b6000610a74610a6f610a6a84610a2f565b610a4f565b610a2f565b9050919050565b6000610a8682610a59565b9050919050565b6000610a9882610a7b565b9050919050565b610aa881610a8d565b82525050565b6000602082019050610ac36000830184610a9f565b92915050565b600082825260208201905092915050565b7f4c697374696e67206973206e6f74206163746976650000000000000000000000600082015250565b6000610b10601583610ac9565b9150610b1b82610ada565b602082019050919050565b60006020820190508181036000830152610b3f81610b03565b9050919050565b7f496e73756666696369656e742066756e64730000000000000000000000000000600082015250565b6000610b7c601283610ac9565b9150610b8782610b46565b602082019050919050565b60006020820190508181036000830152610bab81610b6f565b9050919050565b6000610bbd82610a2f565b9050919050565b610bcd81610bb2565b82525050565b610bdc8161098c565b82525050565b6000606082019050610bf76000830186610bc4565b610c046020830185610bc4565b610c116040830184610bd3565b949350505050565b7f4e6f7420746865206c697374696e67206f776e65720000000000000000000000600082015250565b6000610c4f601583610ac9565b9150610c5a82610c19565b602082019050919050565b60006020820190508181036000830152610c7e81610c42565b9050919050565b6000604082019050610c9a6000830185610bc4565b610ca76020830184610bd3565b9392505050565b6000602082019050610cc36000830184610bd3565b92915050565b610cd281610bb2565b8114610cdd57600080fd5b50565b600081519050610cef81610cc9565b92915050565b600060208284031215610d0b57610d0a610987565b5b6000610d1984828501610ce0565b91505092915050565b7f4e6f742074686520746f6b656e206f776e657200000000000000000000000000600082015250565b6000610d58601383610ac9565b9150610d6382610d22565b602082019050919050565b60006020820190508181036000830152610d8781610d4b565b9050919050565b7f4e487b7100000000000000000000000000000000000000000000000000000000600052601160045260246000fd5b6000610dc88261098c565b91507fffffffffffffffffffffffffffffffffffffffffffffffffffffffffffffffff8203610dfa57610df9610d8e565b5b60018201905091905056fea264697066735822122065c6efac13c06ce1dc71f840b38fb8056697dd45604c8e40ed5656e9b92f137164736f6c634300080f0033",
  "immutableReferences": {},
  "source": "/** SPDX-License-Identifier: UNLICENSED\n * @author: zwan@andrew.cmu.edu\n * 2023-04-21\n */ \n\npragma solidity ^0.8.0;\n\nimport \"@openzeppelin/contracts/token/ERC721/IERC721.sol\";\n\ncontract MelodyMarketplace {\n    struct Listing {\n        uint256 tokenId;\n        address seller;\n        uint256 price;\n        bool active;\n    }\n\n    IERC721 public nftContract;\n    uint256 private nextListingId;\n    mapping(uint256 => Listing) private listings;\n    \n\n    /*\n    This contract should be initialized by `MelodyNFT` Contract Instance.\n    */\n    constructor(address _nftContractAddress) {\n        nftContract = IERC721(_nftContractAddress);\n    }\n\n    /*\n     * @brief List the token for public trading. \n     */\n    function listToken(uint256 _tokenId, uint256 _price) external {\n        require(nftContract.ownerOf(_tokenId) == msg.sender, \"Not the token owner\");\n        nftContract.approve(address(this), _tokenId);\n\n        nextListingId++;\n        listings[nextListingId] = Listing({\n            tokenId: _tokenId,\n            seller: msg.sender,\n            price: _price,\n            active: true\n        });\n    }\n\n    /*\n     * @brief Cancel the listing for an NFT. \n     */\n    function cancelListing(uint256 _listingId) external {\n        require(listings[_listingId].seller == msg.sender, \"Not the listing owner\");\n        require(listings[_listingId].active, \"Listing is not active\");\n\n        nftContract.approve(address(this), listings[_listingId].tokenId);\n        listings[_listingId].active = false;\n    }\n\n    /*\n     * @brief Buy a listed token. \n    */ \n    function buyToken(uint256 _listingId) external payable {\n        require(listings[_listingId].active, \"Listing is not active\");\n        require(msg.value >= listings[_listingId].price, \"Insufficient funds\");\n\n        nftContract.transferFrom(listings[_listingId].seller, msg.sender, listings[_listingId].tokenId);\n        // Transfers Ether from function caller's address to the seller's address. \n        payable(listings[_listingId].seller).transfer(msg.value);\n        // Sets active to false so that no other people can instantly buy the NFT.\n        // Need owner to make that active for further trade. \n        listings[_listingId].active = false;\n    }\n\n    /*\n     * @brief Change price of NFT if you are owner. \n    */\n    function changePrice(uint256 _listingId, uint256 _newPrice) external {\n        require(listings[_listingId].seller == msg.sender, \"Not the listing owner\");\n        require(listings[_listingId].active, \"Listing is not active\");\n\n        listings[_listingId].price = _newPrice;\n    }\n\n    // Implement auction-related functions\n}\n",
  "sourcePath": "/Users/zwan/Desktop/CMU-2023-Spr/73-258/MelodyFoundations/contracts/MelodyMarketplace.sol",
  "compiler": {
    "name": "solc",
    "version": "0.8.15+commit.e14f2714.Emscripten.clang"
  },
  "schemaVersion": "3.4.8",
  "updatedAt": "2023-04-21T19:18:06.218Z",
  "networkType": "ethereum",
  "devdoc": {
    "kind": "dev",
    "methods": {},
    "version": 1
  },
  "userdoc": {
    "kind": "user",
    "methods": {},
    "version": 1
  }
}